:020000040800F2
:1000000000500020BD0100080D0200080D0200088C
:100010000D0200080D0200080D020008000000009B
:100020000000000000000000000000000D020008B9
:100030000D020008000000000D0200080D0200087B
:100040000D0200080D0200080D0200080D02000854
:100050000D0200080D0200080D0200080D02000844
:100060000D0200080D0200080D0200080D02000834
:100070000D0200080D0200080D0200080D02000824
:100080000D0200080D0200080D0200080D02000814
:100090000D0200080D0200080D0200080D02000804
:1000A0000D0200080D0200080D0200080D020008F4
:1000B0000D0200080D0200080D0200080D020008E4
:1000C0000D0200080D0200080D0200080D020008D4
:1000D0000D0200080D0200080D0200080D020008C4
:1000E0000D0200080D020008000000000D020008CB
:1000F0000D0200080D0200080D0200080D020008A4
:100100000D0200080D0200080D0200080D02000893
:100110000D0200080D0200080D0200080D02000883
:100120000D0200080D0200080D0200080D02000873
:1001300010B5054C237833B9044B13B10448AFF321
:1001400000800123237010BD00000020000000008B
:100150005802000808B5034B1BB103490348AFF32D
:10016000008008BD000000000400002058020008C4
:1001700005E000BF0133B3F57A7FFAD3013808B147
:100180000023F8E77047000008B50A4A936943F076
:1001900010039361A2F58032536843F44013536017
:1001A000054AD36883F40053D3606420FFF7E0FF6F
:1001B000F6E700BF00100240001001400D488546E0
:1001C000AFF300800C480D490D4A002302E0D458DB
:1001D000C4500433C4188C42F9D30A4A0A4C002391
:1001E00001E013600432A242FBD300F011F8FFF7E4
:1001F000CBFFFEE7005000200000002000000020A0
:1002000078020008000000201C000020FEE700002B
:1002100070B500260C4D0D4C641BA410A64209D1EC
:1002200000F01AF800260A4D0A4C641BA410A642DE
:1002300005D170BD55F8043B98470136EEE755F8F7
:10024000043B98470136F2E770020008700200088C
:100250007002000874020008F8B500BFF8BC08BCC2
:100260009E467047F8B500BFF8BC08BC9E46704774
:04027000550100082C
:04027400310100084C
:04000005080001BD31
:00000001FF
